{
  "address": "0x5BbaD647eb9b1cB977d5cC022aE216043aCD557a",
  "abi": [
    {
      "anonymous": false,
      "inputs": [
        {
          "indexed": true,
          "internalType": "address",
          "name": "patient",
          "type": "address"
        },
        {
          "indexed": true,
          "internalType": "address",
          "name": "purchased_by",
          "type": "address"
        },
        {
          "indexed": false,
          "internalType": "string",
          "name": "cid",
          "type": "string"
        }
      ],
      "name": "Access",
      "type": "event"
    },
    {
      "anonymous": false,
      "inputs": [
        {
          "indexed": true,
          "internalType": "address",
          "name": "purchased_by",
          "type": "address"
        },
        {
          "components": [
            {
              "internalType": "string",
              "name": "encrypted_data",
              "type": "string"
            },
            {
              "internalType": "string",
              "name": "clear_text_data",
              "type": "string"
            },
            {
              "internalType": "bool",
              "name": "isCancer",
              "type": "bool"
            }
          ],
          "indexed": false,
          "internalType": "struct DataPool.Record[]",
          "name": "allData",
          "type": "tuple[]"
        }
      ],
      "name": "InvokeTraining",
      "type": "event"
    },
    {
      "anonymous": false,
      "inputs": [
        {
          "indexed": true,
          "internalType": "address",
          "name": "patient",
          "type": "address"
        },
        {
          "indexed": true,
          "internalType": "address",
          "name": "purchased_by",
          "type": "address"
        },
        {
          "indexed": false,
          "internalType": "string",
          "name": "cid",
          "type": "string"
        },
        {
          "indexed": false,
          "internalType": "uint256",
          "name": "amount",
          "type": "uint256"
        }
      ],
      "name": "Reward",
      "type": "event"
    },
    {
      "anonymous": false,
      "inputs": [
        {
          "indexed": true,
          "internalType": "address",
          "name": "patient",
          "type": "address"
        },
        {
          "components": [
            {
              "internalType": "string",
              "name": "encrypted_data",
              "type": "string"
            },
            {
              "internalType": "string",
              "name": "clear_text_data",
              "type": "string"
            },
            {
              "internalType": "bool",
              "name": "isCancer",
              "type": "bool"
            }
          ],
          "indexed": false,
          "internalType": "struct DataPool.Record",
          "name": "data",
          "type": "tuple"
        }
      ],
      "name": "Upload",
      "type": "event"
    },
    {
      "inputs": [
        {
          "internalType": "string",
          "name": "_clearData",
          "type": "string"
        },
        {
          "internalType": "string",
          "name": "_encryptedData",
          "type": "string"
        },
        {
          "internalType": "bool",
          "name": "_isCancer",
          "type": "bool"
        }
      ],
      "name": "addData",
      "outputs": [],
      "stateMutability": "nonpayable",
      "type": "function"
    },
    {
      "inputs": [
        {
          "internalType": "address",
          "name": "user_address",
          "type": "address"
        }
      ],
      "name": "getData",
      "outputs": [
        {
          "components": [
            {
              "internalType": "string",
              "name": "encrypted_data",
              "type": "string"
            },
            {
              "internalType": "string",
              "name": "clear_text_data",
              "type": "string"
            },
            {
              "internalType": "bool",
              "name": "isCancer",
              "type": "bool"
            }
          ],
          "internalType": "struct DataPool.Record[]",
          "name": "",
          "type": "tuple[]"
        }
      ],
      "stateMutability": "view",
      "type": "function"
    },
    {
      "inputs": [],
      "name": "getUsers",
      "outputs": [
        {
          "internalType": "address[]",
          "name": "",
          "type": "address[]"
        }
      ],
      "stateMutability": "view",
      "type": "function"
    },
    {
      "inputs": [],
      "name": "trainModel",
      "outputs": [],
      "stateMutability": "nonpayable",
      "type": "function"
    },
    {
      "inputs": [
        {
          "internalType": "uint256",
          "name": "",
          "type": "uint256"
        }
      ],
      "name": "users",
      "outputs": [
        {
          "internalType": "address",
          "name": "",
          "type": "address"
        }
      ],
      "stateMutability": "view",
      "type": "function"
    }
  ],
  "transactionHash": "0xb4d959e8b5da2f1e241b2b2de216cd5360e3ca12390cf292a3038e83c932b0df",
  "args": [],
  "numDeployments": 3,
  "solcInputHash": "64b9cab6317418da1f44af0d9a0399ad",
  "bytecode": "0x608060405234801561001057600080fd5b50610e81806100206000396000f3fe608060405234801561001057600080fd5b50600436106100665760003560e01c806338266b221161005057806338266b22146100a9578063533ad1a4146100c9578063975b9999146100de57600080fd5b8062ce8e3e1461006b578063365b98b214610089575b600080fd5b6100736100e6565b6040516100809190610877565b60405180910390f35b61009c6100973660046108aa565b610148565b60405161008091906108d3565b6100bc6100b73660046108f5565b610172565b6040516100809190610a35565b6100dc6100d7366004610b4c565b61031d565b005b6100dc610449565b6060600080548060200260200160405190810160405280929190818152602001828054801561013e57602002820191906000526020600020905b81546001600160a01b03168152600190910190602001808311610120575b5050505050905090565b6000818154811061015857600080fd5b6000918252602090912001546001600160a01b0316905081565b6001600160a01b0381166000908152600160209081526040808320805482518185028101850190935280835260609492939192909184015b8282101561031257838290600052602060002090600302016040518060600160405290816000820180546101dd90610be7565b80601f016020809104026020016040519081016040528092919081815260200182805461020990610be7565b80156102565780601f1061022b57610100808354040283529160200191610256565b820191906000526020600020905b81548152906001019060200180831161023957829003601f168201915b5050505050815260200160018201805461026f90610be7565b80601f016020809104026020016040519081016040528092919081815260200182805461029b90610be7565b80156102e85780601f106102bd576101008083540402835291602001916102e8565b820191906000526020600020905b8154815290600101906020018083116102cb57829003601f168201915b50505091835250506002919091015460ff16151560209182015290825260019290920191016101aa565b505050509050919050565b60408051606081018252838152602080820186905283151582840152336000908152600180835293812080549485018155815220815191928392600390910290910190819061036c9082610cbc565b50602082015160018201906103819082610cbc565b50604091909101516002909101805460ff19169115159190911790556103a63361078f565b61040257600080546001810182559080527f290decd9548b62a8d60345a988386fc84ba6bc95484008f6362f93160ef3e5630180547fffffffffffffffffffffffff000000000000000000000000000000000000000016331790555b336001600160a01b03167fd0a08d60015be79b66594910ecfa5ab6c2a24b9fccf6474d0452eb2b5645ecda8260405161043b9190610d80565b60405180910390a250505050565b6000805468056bc75e2d6310000091906104639083610dbd565b6040805160008082526020820190925291925090816104ac565b6040805160608082018352808252602082015260009181019190915281526020019060019003908161047d5790505b50905060005b6000548110156107485760006104ee600083815481106104d4576104d4610dd1565b6000918252602090912001546001600160a01b0316610172565b905060005b81518110156107335760008451600161050c9190610de7565b67ffffffffffffffff81111561052457610524610a46565b60405190808252806020026020018201604052801561057157816020015b604080516060808201835280825260208201526000918101919091528152602001906001900390816105425790505b50905060005b85518110156105ca5785818151811061059257610592610dd1565b60200260200101518282815181106105ac576105ac610dd1565b602002602001018190525080806105c290610dfa565b915050610577565b508282815181106105dd576105dd610dd1565b6020026020010151818651815181106105f8576105f8610dd1565b6020026020010181905250809450336001600160a01b03166000858154811061062357610623610dd1565b60009182526020909120015484516001600160a01b03909116907f237c82f637ac34091413ad62cebaa15c781f5356903d0e67f408f483640f3a689086908690811061067157610671610dd1565b60200260200101516020015160405161068a9190610e14565b60405180910390a3336001600160a01b0316600085815481106106af576106af610dd1565b60009182526020909120015484516001600160a01b03909116907f7e2b6beefd6f7885dc83f242e919f35c5cecea5fb6641c85917196264a498892908690869081106106fd576106fd610dd1565b60200260200101516020015189604051610718929190610e2b565b60405180910390a3508061072b81610dfa565b9150506104f3565b5050808061074090610dfa565b9150506104b2565b50336001600160a01b03167ff192e13eb7a176dd814bd1d326ed37457f5ee28ee2e6559ccda6f5ab505eb678826040516107829190610a35565b60405180910390a2505050565b6000805b6000548110156107ef57826001600160a01b0316600082815481106107ba576107ba610dd1565b6000918252602090912001546001600160a01b0316036107dd5750600192915050565b806107e781610dfa565b915050610793565b50600092915050565b60006001600160a01b0382165b92915050565b610814816107f8565b82525050565b6000610826838361080b565b505060200190565b6000610838825190565b80845260209384019383018060005b8381101561086c57815161085b888261081a565b975060208301925050600101610847565b509495945050505050565b60208082528101610888818461082e565b9392505050565b805b811461089c57600080fd5b50565b80356108058161088f565b6000602082840312156108bf576108bf600080fd5b60006108cb848461089f565b949350505050565b60208101610805828461080b565b610891816107f8565b8035610805816108e1565b60006020828403121561090a5761090a600080fd5b60006108cb84846108ea565b60005b83811015610931578181015183820152602001610919565b50506000910152565b6000610944825190565b80845260208401935061095b818560208601610916565b601f01601f19169290920192915050565b801515610814565b805160608084526000919084019061098c828261093a565b915050602083015184820360208601526109a6828261093a565b91505060408301516109bb604086018261096c565b509392505050565b60006108888383610974565b60006109d9825190565b808452602084019350836020820285016109f38560200190565b8060005b85811015610a285784840389528151610a1085826109c3565b94506020830160209a909a01999250506001016109f7565b5091979650505050505050565b6020808252810161088881846109cf565b634e487b7160e01b600052604160045260246000fd5b601f19601f830116810181811067ffffffffffffffff82111715610a8257610a82610a46565b6040525050565b6000610a9460405190565b9050610aa08282610a5c565b919050565b600067ffffffffffffffff821115610abf57610abf610a46565b601f19601f83011660200192915050565b82818337506000910152565b6000610aef610aea84610aa5565b610a89565b905082815260208101848484011115610b0a57610b0a600080fd5b6109bb848285610ad0565b600082601f830112610b2957610b29600080fd5b81356108cb848260208601610adc565b801515610891565b803561080581610b39565b600080600060608486031215610b6457610b64600080fd5b833567ffffffffffffffff811115610b7e57610b7e600080fd5b610b8a86828701610b15565b935050602084013567ffffffffffffffff811115610baa57610baa600080fd5b610bb686828701610b15565b9250506040610bc786828701610b41565b9150509250925092565b634e487b7160e01b600052602260045260246000fd5b600281046001821680610bfb57607f821691505b602082108103610c0d57610c0d610bd1565b50919050565b6000610805610c1f8381565b90565b610c2b83610c13565b81546008840282811b60001990911b908116901990911617825550505050565b6000610c58818484610c22565b505050565b81811015610c7857610c70600082610c4b565b600101610c5d565b5050565b601f821115610c58576000818152602090206020601f85010481016020851015610ca35750805b610cb56020601f860104830182610c5d565b5050505050565b815167ffffffffffffffff811115610cd657610cd6610a46565b610ce08254610be7565b610ceb828285610c7c565b6020601f831160018114610d1f5760008415610d075750858201515b600019600886021c1981166002860217865550610d78565b600085815260208120601f198616915b82811015610d4f5788850151825560209485019460019092019101610d2f565b86831015610d6b5784890151600019601f89166008021c191682555b6001600288020188555050505b505050505050565b602080825281016108888184610974565b634e487b7160e01b600052601260045260246000fd5b634e487b7160e01b600052601160045260246000fd5b600082610dcc57610dcc610d91565b500490565b634e487b7160e01b600052603260045260246000fd5b8082018082111561080557610805610da7565b60006000198203610e0d57610e0d610da7565b5060010190565b60208082528101610888818461093a565b80610814565b60408082528101610e3c818561093a565b90506108886020830184610e2556fea2646970667358221220cbcc8f03ad0943222c9339912546513d4768c7bc4a83125c02b78f9a502ef3cf64736f6c63430008110033",
  "devdoc": {
    "kind": "dev",
    "methods": {},
    "version": 1
  },
  "userdoc": {
    "kind": "user",
    "methods": {},
    "version": 1
  },
  "storageLayout": {
    "storage": [
      {
        "astId": 5,
        "contract": "contracts/DataPool.sol:DataPool",
        "label": "users",
        "offset": 0,
        "slot": "0",
        "type": "t_array(t_address)dyn_storage"
      },
      {
        "astId": 11,
        "contract": "contracts/DataPool.sol:DataPool",
        "label": "data",
        "offset": 0,
        "slot": "1",
        "type": "t_mapping(t_address,t_array(t_struct(Record)18_storage)dyn_storage)"
      }
    ],
    "types": {
      "t_address": {
        "encoding": "inplace",
        "label": "address",
        "numberOfBytes": "20"
      },
      "t_array(t_address)dyn_storage": {
        "base": "t_address",
        "encoding": "dynamic_array",
        "label": "address[]",
        "numberOfBytes": "32"
      },
      "t_array(t_struct(Record)18_storage)dyn_storage": {
        "base": "t_struct(Record)18_storage",
        "encoding": "dynamic_array",
        "label": "struct DataPool.Record[]",
        "numberOfBytes": "32"
      },
      "t_bool": {
        "encoding": "inplace",
        "label": "bool",
        "numberOfBytes": "1"
      },
      "t_mapping(t_address,t_array(t_struct(Record)18_storage)dyn_storage)": {
        "encoding": "mapping",
        "key": "t_address",
        "label": "mapping(address => struct DataPool.Record[])",
        "numberOfBytes": "32",
        "value": "t_array(t_struct(Record)18_storage)dyn_storage"
      },
      "t_string_storage": {
        "encoding": "bytes",
        "label": "string",
        "numberOfBytes": "32"
      },
      "t_struct(Record)18_storage": {
        "encoding": "inplace",
        "label": "struct DataPool.Record",
        "members": [
          {
            "astId": 13,
            "contract": "contracts/DataPool.sol:DataPool",
            "label": "encrypted_data",
            "offset": 0,
            "slot": "0",
            "type": "t_string_storage"
          },
          {
            "astId": 15,
            "contract": "contracts/DataPool.sol:DataPool",
            "label": "clear_text_data",
            "offset": 0,
            "slot": "1",
            "type": "t_string_storage"
          },
          {
            "astId": 17,
            "contract": "contracts/DataPool.sol:DataPool",
            "label": "isCancer",
            "offset": 0,
            "slot": "2",
            "type": "t_bool"
          }
        ],
        "numberOfBytes": "96"
      }
    }
  }
}